{
  "address": "0x5908212C87b04a6Ee135B3E1C90eF572Baf554E5",
  "abi": [
    {
      "inputs": [
        {
          "internalType": "uint256",
          "name": "_maxTokens",
          "type": "uint256"
        },
        {
          "internalType": "uint256",
          "name": "_maxTokensAllowedPerAddress",
          "type": "uint256"
        },
        {
          "internalType": "uint256",
          "name": "_feeWei",
          "type": "uint256"
        },
        {
          "internalType": "bool",
          "name": "_hiddenURI",
          "type": "bool"
        },
        {
          "internalType": "string",
          "name": "_initBaseURI",
          "type": "string"
        },
        {
          "internalType": "string",
          "name": "_temporaryURI",
          "type": "string"
        },
        {
          "internalType": "uint256",
          "name": "_percentageRoyalty",
          "type": "uint256"
        },
        {
          "internalType": "address",
          "name": "_vrfCoordinator",
          "type": "address"
        },
        {
          "internalType": "address",
          "name": "_linkToken",
          "type": "address"
        },
        {
          "internalType": "bytes32",
          "name": "_keyHash",
          "type": "bytes32"
        },
        {
          "internalType": "uint256",
          "name": "_feeLink",
          "type": "uint256"
        }
      ],
      "stateMutability": "nonpayable",
      "type": "constructor"
    },
    {
      "anonymous": false,
      "inputs": [
        {
          "indexed": true,
          "internalType": "address",
          "name": "owner",
          "type": "address"
        },
        {
          "indexed": true,
          "internalType": "address",
          "name": "approved",
          "type": "address"
        },
        {
          "indexed": true,
          "internalType": "uint256",
          "name": "tokenId",
          "type": "uint256"
        }
      ],
      "name": "Approval",
      "type": "event"
    },
    {
      "anonymous": false,
      "inputs": [
        {
          "indexed": true,
          "internalType": "address",
          "name": "owner",
          "type": "address"
        },
        {
          "indexed": true,
          "internalType": "address",
          "name": "operator",
          "type": "address"
        },
        {
          "indexed": false,
          "internalType": "bool",
          "name": "approved",
          "type": "bool"
        }
      ],
      "name": "ApprovalForAll",
      "type": "event"
    },
    {
      "anonymous": false,
      "inputs": [
        {
          "indexed": true,
          "internalType": "address",
          "name": "previousOwner",
          "type": "address"
        },
        {
          "indexed": true,
          "internalType": "address",
          "name": "newOwner",
          "type": "address"
        }
      ],
      "name": "OwnershipTransferred",
      "type": "event"
    },
    {
      "anonymous": false,
      "inputs": [
        {
          "indexed": false,
          "internalType": "address",
          "name": "account",
          "type": "address"
        }
      ],
      "name": "Paused",
      "type": "event"
    },
    {
      "anonymous": false,
      "inputs": [
        {
          "indexed": true,
          "internalType": "address",
          "name": "from",
          "type": "address"
        },
        {
          "indexed": true,
          "internalType": "address",
          "name": "to",
          "type": "address"
        },
        {
          "indexed": true,
          "internalType": "uint256",
          "name": "tokenId",
          "type": "uint256"
        }
      ],
      "name": "Transfer",
      "type": "event"
    },
    {
      "anonymous": false,
      "inputs": [
        {
          "indexed": false,
          "internalType": "address",
          "name": "account",
          "type": "address"
        }
      ],
      "name": "Unpaused",
      "type": "event"
    },
    {
      "anonymous": false,
      "inputs": [
        {
          "indexed": true,
          "internalType": "bytes32",
          "name": "requestIndex",
          "type": "bytes32"
        },
        {
          "indexed": false,
          "internalType": "address",
          "name": "requester",
          "type": "address"
        }
      ],
      "name": "requestedIndex",
      "type": "event"
    },
    {
      "inputs": [
        {
          "internalType": "address",
          "name": "to",
          "type": "address"
        },
        {
          "internalType": "uint256",
          "name": "tokenId",
          "type": "uint256"
        }
      ],
      "name": "approve",
      "outputs": [],
      "stateMutability": "nonpayable",
      "type": "function"
    },
    {
      "inputs": [
        {
          "internalType": "address",
          "name": "owner",
          "type": "address"
        }
      ],
      "name": "balanceOf",
      "outputs": [
        {
          "internalType": "uint256",
          "name": "",
          "type": "uint256"
        }
      ],
      "stateMutability": "view",
      "type": "function"
    },
    {
      "inputs": [],
      "name": "contractBalance",
      "outputs": [
        {
          "internalType": "uint256",
          "name": "",
          "type": "uint256"
        }
      ],
      "stateMutability": "view",
      "type": "function"
    },
    {
      "inputs": [
        {
          "internalType": "address",
          "name": "_address",
          "type": "address"
        }
      ],
      "name": "enterWhitelist",
      "outputs": [],
      "stateMutability": "nonpayable",
      "type": "function"
    },
    {
      "inputs": [
        {
          "internalType": "address",
          "name": "_address",
          "type": "address"
        }
      ],
      "name": "exitWhitelist",
      "outputs": [],
      "stateMutability": "nonpayable",
      "type": "function"
    },
    {
      "inputs": [],
      "name": "feeWei",
      "outputs": [
        {
          "internalType": "uint256",
          "name": "",
          "type": "uint256"
        }
      ],
      "stateMutability": "view",
      "type": "function"
    },
    {
      "inputs": [
        {
          "internalType": "uint256",
          "name": "tokenId",
          "type": "uint256"
        }
      ],
      "name": "getApproved",
      "outputs": [
        {
          "internalType": "address",
          "name": "",
          "type": "address"
        }
      ],
      "stateMutability": "view",
      "type": "function"
    },
    {
      "inputs": [
        {
          "internalType": "address",
          "name": "_address",
          "type": "address"
        }
      ],
      "name": "getTokensOwned",
      "outputs": [
        {
          "internalType": "uint256[]",
          "name": "",
          "type": "uint256[]"
        }
      ],
      "stateMutability": "view",
      "type": "function"
    },
    {
      "inputs": [],
      "name": "hiddenURI",
      "outputs": [
        {
          "internalType": "bool",
          "name": "",
          "type": "bool"
        }
      ],
      "stateMutability": "view",
      "type": "function"
    },
    {
      "inputs": [],
      "name": "hideURI",
      "outputs": [],
      "stateMutability": "nonpayable",
      "type": "function"
    },
    {
      "inputs": [
        {
          "internalType": "address",
          "name": "",
          "type": "address"
        }
      ],
      "name": "inWhitelist",
      "outputs": [
        {
          "internalType": "bool",
          "name": "",
          "type": "bool"
        }
      ],
      "stateMutability": "view",
      "type": "function"
    },
    {
      "inputs": [
        {
          "internalType": "address",
          "name": "owner",
          "type": "address"
        },
        {
          "internalType": "address",
          "name": "operator",
          "type": "address"
        }
      ],
      "name": "isApprovedForAll",
      "outputs": [
        {
          "internalType": "bool",
          "name": "",
          "type": "bool"
        }
      ],
      "stateMutability": "view",
      "type": "function"
    },
    {
      "inputs": [
        {
          "internalType": "uint256",
          "name": "",
          "type": "uint256"
        }
      ],
      "name": "listMintedTokensIds",
      "outputs": [
        {
          "internalType": "uint256",
          "name": "",
          "type": "uint256"
        }
      ],
      "stateMutability": "view",
      "type": "function"
    },
    {
      "inputs": [
        {
          "internalType": "address",
          "name": "",
          "type": "address"
        }
      ],
      "name": "mapAddressToLatestTokenId",
      "outputs": [
        {
          "internalType": "uint256",
          "name": "",
          "type": "uint256"
        }
      ],
      "stateMutability": "view",
      "type": "function"
    },
    {
      "inputs": [
        {
          "internalType": "address",
          "name": "",
          "type": "address"
        },
        {
          "internalType": "uint256",
          "name": "",
          "type": "uint256"
        }
      ],
      "name": "mapAddressToTokenIds",
      "outputs": [
        {
          "internalType": "uint256",
          "name": "",
          "type": "uint256"
        }
      ],
      "stateMutability": "view",
      "type": "function"
    },
    {
      "inputs": [],
      "name": "maxTokensAllowedPerAddress",
      "outputs": [
        {
          "internalType": "uint256",
          "name": "",
          "type": "uint256"
        }
      ],
      "stateMutability": "view",
      "type": "function"
    },
    {
      "inputs": [],
      "name": "mintedTokens",
      "outputs": [
        {
          "internalType": "uint256[]",
          "name": "",
          "type": "uint256[]"
        }
      ],
      "stateMutability": "view",
      "type": "function"
    },
    {
      "inputs": [],
      "name": "mintedTokensSize",
      "outputs": [
        {
          "internalType": "uint256",
          "name": "",
          "type": "uint256"
        }
      ],
      "stateMutability": "view",
      "type": "function"
    },
    {
      "inputs": [],
      "name": "name",
      "outputs": [
        {
          "internalType": "string",
          "name": "",
          "type": "string"
        }
      ],
      "stateMutability": "view",
      "type": "function"
    },
    {
      "inputs": [],
      "name": "owner",
      "outputs": [
        {
          "internalType": "address",
          "name": "",
          "type": "address"
        }
      ],
      "stateMutability": "view",
      "type": "function"
    },
    {
      "inputs": [
        {
          "internalType": "uint256",
          "name": "tokenId",
          "type": "uint256"
        }
      ],
      "name": "ownerOf",
      "outputs": [
        {
          "internalType": "address",
          "name": "",
          "type": "address"
        }
      ],
      "stateMutability": "view",
      "type": "function"
    },
    {
      "inputs": [],
      "name": "pause",
      "outputs": [],
      "stateMutability": "nonpayable",
      "type": "function"
    },
    {
      "inputs": [],
      "name": "paused",
      "outputs": [
        {
          "internalType": "bool",
          "name": "",
          "type": "bool"
        }
      ],
      "stateMutability": "view",
      "type": "function"
    },
    {
      "inputs": [
        {
          "internalType": "address",
          "name": "",
          "type": "address"
        }
      ],
      "name": "processingMint",
      "outputs": [
        {
          "internalType": "bool",
          "name": "",
          "type": "bool"
        }
      ],
      "stateMutability": "view",
      "type": "function"
    },
    {
      "inputs": [
        {
          "internalType": "bytes32",
          "name": "requestId",
          "type": "bytes32"
        },
        {
          "internalType": "uint256",
          "name": "randomness",
          "type": "uint256"
        }
      ],
      "name": "rawFulfillRandomness",
      "outputs": [],
      "stateMutability": "nonpayable",
      "type": "function"
    },
    {
      "inputs": [],
      "name": "renounceOwnership",
      "outputs": [],
      "stateMutability": "nonpayable",
      "type": "function"
    },
    {
      "inputs": [],
      "name": "requestRandomIndex",
      "outputs": [],
      "stateMutability": "payable",
      "type": "function"
    },
    {
      "inputs": [],
      "name": "revealURI",
      "outputs": [],
      "stateMutability": "nonpayable",
      "type": "function"
    },
    {
      "inputs": [
        {
          "internalType": "uint256",
          "name": "",
          "type": "uint256"
        },
        {
          "internalType": "uint256",
          "name": "value",
          "type": "uint256"
        }
      ],
      "name": "royaltyInfo",
      "outputs": [
        {
          "internalType": "address",
          "name": "receiver",
          "type": "address"
        },
        {
          "internalType": "uint256",
          "name": "royaltyAmount",
          "type": "uint256"
        }
      ],
      "stateMutability": "view",
      "type": "function"
    },
    {
      "inputs": [
        {
          "internalType": "address",
          "name": "from",
          "type": "address"
        },
        {
          "internalType": "address",
          "name": "to",
          "type": "address"
        },
        {
          "internalType": "uint256",
          "name": "tokenId",
          "type": "uint256"
        }
      ],
      "name": "safeTransferFrom",
      "outputs": [],
      "stateMutability": "nonpayable",
      "type": "function"
    },
    {
      "inputs": [
        {
          "internalType": "address",
          "name": "from",
          "type": "address"
        },
        {
          "internalType": "address",
          "name": "to",
          "type": "address"
        },
        {
          "internalType": "uint256",
          "name": "tokenId",
          "type": "uint256"
        },
        {
          "internalType": "bytes",
          "name": "_data",
          "type": "bytes"
        }
      ],
      "name": "safeTransferFrom",
      "outputs": [],
      "stateMutability": "nonpayable",
      "type": "function"
    },
    {
      "inputs": [
        {
          "internalType": "address",
          "name": "operator",
          "type": "address"
        },
        {
          "internalType": "bool",
          "name": "approved",
          "type": "bool"
        }
      ],
      "name": "setApprovalForAll",
      "outputs": [],
      "stateMutability": "nonpayable",
      "type": "function"
    },
    {
      "inputs": [
        {
          "internalType": "uint256",
          "name": "_max",
          "type": "uint256"
        }
      ],
      "name": "setMaxTokensMintablePerAddress",
      "outputs": [],
      "stateMutability": "nonpayable",
      "type": "function"
    },
    {
      "inputs": [
        {
          "internalType": "uint256",
          "name": "_feeWei",
          "type": "uint256"
        }
      ],
      "name": "setMintFee",
      "outputs": [],
      "stateMutability": "nonpayable",
      "type": "function"
    },
    {
      "inputs": [
        {
          "internalType": "address",
          "name": "_recipient",
          "type": "address"
        },
        {
          "internalType": "uint256",
          "name": "_percentageRoyalty",
          "type": "uint256"
        }
      ],
      "name": "setRoyalties",
      "outputs": [],
      "stateMutability": "nonpayable",
      "type": "function"
    },
    {
      "inputs": [
        {
          "internalType": "bytes4",
          "name": "interfaceId",
          "type": "bytes4"
        }
      ],
      "name": "supportsInterface",
      "outputs": [
        {
          "internalType": "bool",
          "name": "",
          "type": "bool"
        }
      ],
      "stateMutability": "view",
      "type": "function"
    },
    {
      "inputs": [],
      "name": "symbol",
      "outputs": [
        {
          "internalType": "string",
          "name": "",
          "type": "string"
        }
      ],
      "stateMutability": "view",
      "type": "function"
    },
    {
      "inputs": [
        {
          "internalType": "uint256",
          "name": "tokenId",
          "type": "uint256"
        }
      ],
      "name": "tokenURI",
      "outputs": [
        {
          "internalType": "string",
          "name": "",
          "type": "string"
        }
      ],
      "stateMutability": "view",
      "type": "function"
    },
    {
      "inputs": [],
      "name": "totalTokensRemaining",
      "outputs": [
        {
          "internalType": "uint256",
          "name": "",
          "type": "uint256"
        }
      ],
      "stateMutability": "view",
      "type": "function"
    },
    {
      "inputs": [
        {
          "internalType": "address",
          "name": "from",
          "type": "address"
        },
        {
          "internalType": "address",
          "name": "to",
          "type": "address"
        },
        {
          "internalType": "uint256",
          "name": "tokenId",
          "type": "uint256"
        }
      ],
      "name": "transferFrom",
      "outputs": [],
      "stateMutability": "nonpayable",
      "type": "function"
    },
    {
      "inputs": [
        {
          "internalType": "address",
          "name": "newOwner",
          "type": "address"
        }
      ],
      "name": "transferOwnership",
      "outputs": [],
      "stateMutability": "nonpayable",
      "type": "function"
    },
    {
      "inputs": [],
      "name": "unpause",
      "outputs": [],
      "stateMutability": "nonpayable",
      "type": "function"
    },
    {
      "inputs": [],
      "name": "withdraw",
      "outputs": [],
      "stateMutability": "nonpayable",
      "type": "function"
    }
  ],
  "transactionHash": "0x06c9f28d8000245f53a311e8a90acb99e9de4e480a8c2b4177ef837ff6b61de5",
  "args": [
    128,
    3,
    "100000000000000000000",
    false,
    "https://bafybeie7tfvkzrdf2n4f4sutqpu27gdhtbbwcwv74otbpzqmr2x3i4dmq4.ipfs.dweb.link/",
    "https://bafybeiexrjqcdzquhnf2uj5rzhavlqg2exerqjzafoi3c4ub6tn3xez4sq.ipfs.dweb.link/hidden.json",
    10,
    "0x8C7382F9D8f56b33781fE506E897a4F1e2d17255",
    "0x326C977E6efc84E512bB9C30f76E30c160eD06FB",
    "0x6e75b569a01ef56d18cab6a8e71e6600d6ce853834d4a5748b720d06f878b3a4",
    "100000000000000"
  ],
  "solcInputHash": "d7c8551dedbb78c2214d5a90aedca250",
  "bytecode": "0x60c06040523480156200001157600080fd5b50604051620068f9380380620068f98339818101604052810190620000379190620005e5565b83836040518060400160405280600a81526020017f437572696f75734b6964000000000000000000000000000000000000000000008152506040518060400160405280600281526020017f434b0000000000000000000000000000000000000000000000000000000000008152508160009080519060200190620000bd92919062000467565b508060019080519060200190620000d692919062000467565b5050508173ffffffffffffffffffffffffffffffffffffffff1660a08173ffffffffffffffffffffffffffffffffffffffff1660601b815250508073ffffffffffffffffffffffffffffffffffffffff1660808173ffffffffffffffffffffffffffffffffffffffff1660601b8152505050506000600860006101000a81548160ff02191690831515021790555062000184620001786200028260201b60201c565b6200028a60201b60201c565b60016009819055508a600b8190555089600c8190555088600d8190555087600f60006101000a81548160ff0219169083151502179055508660119080519060200190620001d392919062000467565b508560129080519060200190620001ec92919062000467565b508160138190555080601481905550606485111562000242576040517f08c379a00000000000000000000000000000000000000000000000000000000081526004016200023990620007c4565b60405180910390fd5b62000271620002566200035060201b60201c565b6064876200026591906200085e565b6200037a60201b60201c565b505050505050505050505062000a74565b600033905090565b6000600860019054906101000a900473ffffffffffffffffffffffffffffffffffffffff16905081600860016101000a81548173ffffffffffffffffffffffffffffffffffffffff021916908373ffffffffffffffffffffffffffffffffffffffff1602179055508173ffffffffffffffffffffffffffffffffffffffff168173ffffffffffffffffffffffffffffffffffffffff167f8be0079c531659141344cd1fd0a4f28419497f9722a3daafe3b4186f6b6457e060405160405180910390a35050565b6000600860019054906101000a900473ffffffffffffffffffffffffffffffffffffffff16905090565b612710811115620003c2576040517f08c379a0000000000000000000000000000000000000000000000000000000008152600401620003b990620007a2565b60405180910390fd5b60405180604001604052808373ffffffffffffffffffffffffffffffffffffffff1681526020018262ffffff16815250600a60008201518160000160006101000a81548173ffffffffffffffffffffffffffffffffffffffff021916908373ffffffffffffffffffffffffffffffffffffffff16021790555060208201518160000160146101000a81548162ffffff021916908362ffffff1602179055509050505050565b828054620004759062000949565b90600052602060002090601f016020900481019282620004995760008555620004e5565b82601f10620004b457805160ff1916838001178555620004e5565b82800160010185558215620004e5579182015b82811115620004e4578251825591602001919060010190620004c7565b5b509050620004f49190620004f8565b5090565b5b8082111562000513576000816000905550600101620004f9565b5090565b60006200052e62000528846200081a565b620007e6565b9050828152602081018484840111156200054757600080fd5b6200055484828562000913565b509392505050565b6000815190506200056d8162000a0c565b92915050565b600081519050620005848162000a26565b92915050565b6000815190506200059b8162000a40565b92915050565b600082601f830112620005b357600080fd5b8151620005c584826020860162000517565b91505092915050565b600081519050620005df8162000a5a565b92915050565b60008060008060008060008060008060006101608c8e0312156200060857600080fd5b6000620006188e828f01620005ce565b9b505060206200062b8e828f01620005ce565b9a505060406200063e8e828f01620005ce565b9950506060620006518e828f0162000573565b98505060808c015167ffffffffffffffff8111156200066f57600080fd5b6200067d8e828f01620005a1565b97505060a08c015167ffffffffffffffff8111156200069b57600080fd5b620006a98e828f01620005a1565b96505060c0620006bc8e828f01620005ce565b95505060e0620006cf8e828f016200055c565b945050610100620006e38e828f016200055c565b935050610120620006f78e828f016200058a565b9250506101406200070b8e828f01620005ce565b9150509295989b509295989b9093969950565b60006200072d601a836200084d565b91507f45524332393831526f79616c746965733a20546f6f20686967680000000000006000830152602082019050919050565b60006200076f601e836200084d565b91507f30203c3d205f70657263656e74616765526f79616c7479203c3d2031303000006000830152602082019050919050565b60006020820190508181036000830152620007bd816200071e565b9050919050565b60006020820190508181036000830152620007df8162000760565b9050919050565b6000604051905081810181811067ffffffffffffffff8211171562000810576200080f620009dd565b5b8060405250919050565b600067ffffffffffffffff821115620008385762000837620009dd565b5b601f19601f8301169050602081019050919050565b600082825260208201905092915050565b60006200086b8262000909565b9150620008788362000909565b9250817fffffffffffffffffffffffffffffffffffffffffffffffffffffffffffffffff0483118215151615620008b457620008b36200097f565b5b828202905092915050565b6000620008cc82620008e9565b9050919050565b60008115159050919050565b6000819050919050565b600073ffffffffffffffffffffffffffffffffffffffff82169050919050565b6000819050919050565b60005b838110156200093357808201518184015260208101905062000916565b8381111562000943576000848401525b50505050565b600060028204905060018216806200096257607f821691505b60208210811415620009795762000978620009ae565b5b50919050565b7f4e487b7100000000000000000000000000000000000000000000000000000000600052601160045260246000fd5b7f4e487b7100000000000000000000000000000000000000000000000000000000600052602260045260246000fd5b7f4e487b7100000000000000000000000000000000000000000000000000000000600052604160045260246000fd5b62000a1781620008bf565b811462000a2357600080fd5b50565b62000a3181620008d3565b811462000a3d57600080fd5b50565b62000a4b81620008df565b811462000a5757600080fd5b50565b62000a658162000909565b811462000a7157600080fd5b50565b60805160601c60a05160601c615e4b62000aae60003960008181611af2015261350b015260008181612b7101526134cf0152615e4b6000f3fe60806040526004361061025c5760003560e01c80638b7afe2e11610144578063c2d79d90116100b6578063e02040871161007a578063e0204087146108b4578063e2aafa21146108dd578063e985e9c51461091a578063eddd0d9c14610957578063f2fde38b14610980578063f832eae5146109a95761025c565b8063c2d79d90146107a9578063c87b56dd146107e6578063cbe4cd6b14610823578063d004876414610860578063d4968fd01461089d5761025c565b806394985ddd1161010857806394985ddd1461068957806395d89b41146106b25780639a143a30146106dd578063a22cb4651461071a578063b88d4fde14610743578063bf2538521461076c5761025c565b80638b7afe2e146105b45780638c7ea24b146105df5780638cc54e7f146106085780638d75fe05146106335780638da5cb5b1461065e5761025c565b80632a55205a116101dd578063506f9e83116101a1578063506f9e83146104d75780635c975abb146104e15780636352211e1461050c57806370a0823114610549578063715018a6146105865780638456cb591461059d5761025c565b80632a55205a146104175780633ccfd60b146104555780633f4ba83a1461046c57806342842e0e14610483578063428c090b146104ac5761025c565b80632053054b116102245780632053054b1461034657806323b872dd1461036f57806323c347a41461039857806327bbfb0b146103c35780632a0d4a8f146103ec5761025c565b806301ffc9a71461026157806306fdde031461029e578063081812fc146102c9578063095ea7b314610306578063160fba561461032f575b600080fd5b34801561026d57600080fd5b506102886004803603810190610283919061431c565b6109d4565b60405161029591906153b2565b60405180910390f35b3480156102aa57600080fd5b506102b36109e6565b6040516102c0919061543b565b60405180910390f35b3480156102d557600080fd5b506102f060048036038101906102eb919061436e565b610a78565b6040516102fd91906152c2565b60405180910390f35b34801561031257600080fd5b5061032d6004803603810190610328919061427b565b610afd565b005b34801561033b57600080fd5b50610344610c15565b005b34801561035257600080fd5b5061036d60048036038101906103689190614110565b610cfd565b005b34801561037b57600080fd5b5061039660048036038101906103919190614175565b610ed7565b005b3480156103a457600080fd5b506103ad610f37565b6040516103ba919061593d565b60405180910390f35b3480156103cf57600080fd5b506103ea60048036038101906103e5919061436e565b610f3d565b005b3480156103f857600080fd5b5061040161104b565b60405161040e919061593d565b60405180910390f35b34801561042357600080fd5b5061043e600480360381019061043991906143c0565b611058565b60405161044c929190615329565b60405180910390f35b34801561046157600080fd5b5061046a611118565b005b34801561047857600080fd5b50610481611243565b005b34801561048f57600080fd5b506104aa60048036038101906104a59190614175565b6112c9565b005b3480156104b857600080fd5b506104c16112e9565b6040516104ce919061593d565b60405180910390f35b6104df6112ef565b005b3480156104ed57600080fd5b506104f661166e565b60405161050391906153b2565b60405180910390f35b34801561051857600080fd5b50610533600480360381019061052e919061436e565b611685565b60405161054091906152c2565b60405180910390f35b34801561055557600080fd5b50610570600480360381019061056b9190614110565b611737565b60405161057d919061593d565b60405180910390f35b34801561059257600080fd5b5061059b6117ef565b005b3480156105a957600080fd5b506105b2611877565b005b3480156105c057600080fd5b506105c96118fd565b6040516105d6919061593d565b60405180910390f35b3480156105eb57600080fd5b506106066004803603810190610601919061427b565b611981565b005b34801561061457600080fd5b5061061d611a5b565b60405161062a91906153b2565b60405180910390f35b34801561063f57600080fd5b50610648611a6e565b6040516106559190615390565b60405180910390f35b34801561066a57600080fd5b50610673611ac6565b60405161068091906152c2565b60405180910390f35b34801561069557600080fd5b506106b060048036038101906106ab91906142e0565b611af0565b005b3480156106be57600080fd5b506106c7611b8c565b6040516106d4919061543b565b60405180910390f35b3480156106e957600080fd5b5061070460048036038101906106ff9190614110565b611c1e565b604051610711919061593d565b60405180910390f35b34801561072657600080fd5b50610741600480360381019061073c919061423f565b611c36565b005b34801561074f57600080fd5b5061076a600480360381019061076591906141c4565b611db7565b005b34801561077857600080fd5b50610793600480360381019061078e9190614110565b611e19565b6040516107a091906153b2565b60405180910390f35b3480156107b557600080fd5b506107d060048036038101906107cb919061427b565b611e39565b6040516107dd919061593d565b60405180910390f35b3480156107f257600080fd5b5061080d6004803603810190610808919061436e565b611e6a565b60405161081a919061543b565b60405180910390f35b34801561082f57600080fd5b5061084a6004803603810190610845919061436e565b612063565b604051610857919061593d565b60405180910390f35b34801561086c57600080fd5b5061088760048036038101906108829190614110565b612087565b6040516108949190615390565b60405180910390f35b3480156108a957600080fd5b506108b261211e565b005b3480156108c057600080fd5b506108db60048036038101906108d69190614110565b612207565b005b3480156108e957600080fd5b5061090460048036038101906108ff9190614110565b61236a565b60405161091191906153b2565b60405180910390f35b34801561092657600080fd5b50610941600480360381019061093c9190614139565b61238a565b60405161094e91906153b2565b60405180910390f35b34801561096357600080fd5b5061097e6004803603810190610979919061436e565b61241e565b005b34801561098c57600080fd5b506109a760048036038101906109a29190614110565b6124e9565b005b3480156109b557600080fd5b506109be6125e1565b6040516109cb919061593d565b60405180910390f35b60006109df826125e7565b9050919050565b6060600080546109f590615c15565b80601f0160208091040260200160405190810160405280929190818152602001828054610a2190615c15565b8015610a6e5780601f10610a4357610100808354040283529160200191610a6e565b820191906000526020600020905b815481529060010190602001808311610a5157829003601f168201915b5050505050905090565b6000610a8382612661565b610ac2576040517f08c379a0000000000000000000000000000000000000000000000000000000008152600401610ab99061575d565b60405180910390fd5b6004600083815260200190815260200160002060009054906101000a900473ffffffffffffffffffffffffffffffffffffffff169050919050565b6000610b0882611685565b90508073ffffffffffffffffffffffffffffffffffffffff168373ffffffffffffffffffffffffffffffffffffffff161415610b79576040517f08c379a0000000000000000000000000000000000000000000000000000000008152600401610b709061587d565b60405180910390fd5b8073ffffffffffffffffffffffffffffffffffffffff16610b986126cd565b73ffffffffffffffffffffffffffffffffffffffff161480610bc75750610bc681610bc16126cd565b61238a565b5b610c06576040517f08c379a0000000000000000000000000000000000000000000000000000000008152600401610bfd9061569d565b60405180910390fd5b610c1083836126d5565b505050565b610c1d6126cd565b73ffffffffffffffffffffffffffffffffffffffff16610c3b611ac6565b73ffffffffffffffffffffffffffffffffffffffff1614610c91576040517f08c379a0000000000000000000000000000000000000000000000000000000008152600401610c889061577d565b60405180910390fd5b600f60009054906101000a900460ff16610ce0576040517f08c379a0000000000000000000000000000000000000000000000000000000008152600401610cd79061581d565b60405180910390fd5b6000600f60006101000a81548160ff021916908315150217905550565b610d056126cd565b73ffffffffffffffffffffffffffffffffffffffff16610d23611ac6565b73ffffffffffffffffffffffffffffffffffffffff1614610d79576040517f08c379a0000000000000000000000000000000000000000000000000000000008152600401610d709061577d565b60405180910390fd5b610d81611ac6565b73ffffffffffffffffffffffffffffffffffffffff168173ffffffffffffffffffffffffffffffffffffffff161415610def576040517f08c379a0000000000000000000000000000000000000000000000000000000008152600401610de69061591d565b60405180910390fd5b601a60008273ffffffffffffffffffffffffffffffffffffffff1673ffffffffffffffffffffffffffffffffffffffff16815260200190815260200160002060009054906101000a900460ff1615610e7c576040517f08c379a0000000000000000000000000000000000000000000000000000000008152600401610e73906158dd565b60405180910390fd5b6001601a60008373ffffffffffffffffffffffffffffffffffffffff1673ffffffffffffffffffffffffffffffffffffffff16815260200190815260200160002060006101000a81548160ff02191690831515021790555050565b610ee8610ee26126cd565b8261278e565b610f27576040517f08c379a0000000000000000000000000000000000000000000000000000000008152600401610f1e9061589d565b60405180910390fd5b610f3283838361286c565b505050565b600c5481565b610f456126cd565b73ffffffffffffffffffffffffffffffffffffffff16610f63611ac6565b73ffffffffffffffffffffffffffffffffffffffff1614610fb9576040517f08c379a0000000000000000000000000000000000000000000000000000000008152600401610fb09061577d565b60405180910390fd5b600c54811415610ffe576040517f08c379a0000000000000000000000000000000000000000000000000000000008152600401610ff5906155fd565b60405180910390fd5b60008111611041576040517f08c379a00000000000000000000000000000000000000000000000000000000081526004016110389061555d565b60405180910390fd5b80600c8190555050565b6000600e80549050905090565b6000806000600a6040518060400160405290816000820160009054906101000a900473ffffffffffffffffffffffffffffffffffffffff1673ffffffffffffffffffffffffffffffffffffffff1673ffffffffffffffffffffffffffffffffffffffff1681526020016000820160149054906101000a900462ffffff1662ffffff1662ffffff1681525050905080600001519250612710816020015162ffffff16856111049190615ac7565b61110e9190615a96565b9150509250929050565b6111206126cd565b73ffffffffffffffffffffffffffffffffffffffff1661113e611ac6565b73ffffffffffffffffffffffffffffffffffffffff1614611194576040517f08c379a000000000000000000000000000000000000000000000000000000000815260040161118b9061577d565b60405180910390fd5b60003373ffffffffffffffffffffffffffffffffffffffff16476040516111ba906152ad565b60006040518083038185875af1925050503d80600081146111f7576040519150601f19603f3d011682016040523d82523d6000602084013e6111fc565b606091505b5050905080611240576040517f08c379a00000000000000000000000000000000000000000000000000000000081526004016112379061551d565b60405180910390fd5b50565b61124b6126cd565b73ffffffffffffffffffffffffffffffffffffffff16611269611ac6565b73ffffffffffffffffffffffffffffffffffffffff16146112bf576040517f08c379a00000000000000000000000000000000000000000000000000000000081526004016112b69061577d565b60405180910390fd5b6112c7612ac8565b565b6112e483838360405180602001604052806000815250611db7565b505050565b600d5481565b60026009541415611335576040517f08c379a000000000000000000000000000000000000000000000000000000000815260040161132c906158bd565b60405180910390fd5b600260098190555061134561166e565b15611385576040517f08c379a000000000000000000000000000000000000000000000000000000000815260040161137c9061565d565b60405180910390fd5b601960003373ffffffffffffffffffffffffffffffffffffffff1673ffffffffffffffffffffffffffffffffffffffff16815260200190815260200160002060009054906101000a900460ff1615611412576040517f08c379a0000000000000000000000000000000000000000000000000000000008152600401611409906154fd565b60405180910390fd5b6000600b5411611457576040517f08c379a000000000000000000000000000000000000000000000000000000000815260040161144e9061585d565b60405180910390fd5b61145f611ac6565b73ffffffffffffffffffffffffffffffffffffffff163373ffffffffffffffffffffffffffffffffffffffff161461157557600c5461149d33611737565b106114dd576040517f08c379a00000000000000000000000000000000000000000000000000000000081526004016114d4906158fd565b60405180910390fd5b601a60003373ffffffffffffffffffffffffffffffffffffffff1673ffffffffffffffffffffffffffffffffffffffff16815260200190815260200160002060009054906101000a900460ff1661157457600d54341015611573576040517f08c379a000000000000000000000000000000000000000000000000000000000815260040161156a9061557d565b60405180910390fd5b5b5b600061157f612b6a565b9050336015600083815260200190815260200160002060006101000a81548173ffffffffffffffffffffffffffffffffffffffff021916908373ffffffffffffffffffffffffffffffffffffffff1602179055506001601960003373ffffffffffffffffffffffffffffffffffffffff1673ffffffffffffffffffffffffffffffffffffffff16815260200190815260200160002060006101000a81548160ff021916908315150217905550807f6e8621cd45677d3c4701319897875f8fe6612039fe5734179e62cad6fe90e0f23360405161165b91906152c2565b60405180910390a2506001600981905550565b6000600860009054906101000a900460ff16905090565b6000806002600084815260200190815260200160002060009054906101000a900473ffffffffffffffffffffffffffffffffffffffff169050600073ffffffffffffffffffffffffffffffffffffffff168173ffffffffffffffffffffffffffffffffffffffff16141561172e576040517f08c379a0000000000000000000000000000000000000000000000000000000008152600401611725906156dd565b60405180910390fd5b80915050919050565b60008073ffffffffffffffffffffffffffffffffffffffff168273ffffffffffffffffffffffffffffffffffffffff1614156117a8576040517f08c379a000000000000000000000000000000000000000000000000000000000815260040161179f906156bd565b60405180910390fd5b600360008373ffffffffffffffffffffffffffffffffffffffff1673ffffffffffffffffffffffffffffffffffffffff168152602001908152602001600020549050919050565b6117f76126cd565b73ffffffffffffffffffffffffffffffffffffffff16611815611ac6565b73ffffffffffffffffffffffffffffffffffffffff161461186b576040517f08c379a00000000000000000000000000000000000000000000000000000000081526004016118629061577d565b60405180910390fd5b6118756000612c6c565b565b61187f6126cd565b73ffffffffffffffffffffffffffffffffffffffff1661189d611ac6565b73ffffffffffffffffffffffffffffffffffffffff16146118f3576040517f08c379a00000000000000000000000000000000000000000000000000000000081526004016118ea9061577d565b60405180910390fd5b6118fb612d32565b565b60006119076126cd565b73ffffffffffffffffffffffffffffffffffffffff16611925611ac6565b73ffffffffffffffffffffffffffffffffffffffff161461197b576040517f08c379a00000000000000000000000000000000000000000000000000000000081526004016119729061577d565b60405180910390fd5b47905090565b6119896126cd565b73ffffffffffffffffffffffffffffffffffffffff166119a7611ac6565b73ffffffffffffffffffffffffffffffffffffffff16146119fd576040517f08c379a00000000000000000000000000000000000000000000000000000000081526004016119f49061577d565b60405180910390fd5b6064811115611a41576040517f08c379a0000000000000000000000000000000000000000000000000000000008152600401611a389061583d565b60405180910390fd5b611a5782606483611a529190615ac7565b612dd5565b5050565b600f60009054906101000a900460ff1681565b6060600e805480602002602001604051908101604052809291908181526020018280548015611abc57602002820191906000526020600020905b815481526020019060010190808311611aa8575b5050505050905090565b6000600860019054906101000a900473ffffffffffffffffffffffffffffffffffffffff16905090565b7f000000000000000000000000000000000000000000000000000000000000000073ffffffffffffffffffffffffffffffffffffffff163373ffffffffffffffffffffffffffffffffffffffff1614611b7e576040517f08c379a0000000000000000000000000000000000000000000000000000000008152600401611b75906157fd565b60405180910390fd5b611b888282612ebf565b5050565b606060018054611b9b90615c15565b80601f0160208091040260200160405190810160405280929190818152602001828054611bc790615c15565b8015611c145780601f10611be957610100808354040283529160200191611c14565b820191906000526020600020905b815481529060010190602001808311611bf757829003601f168201915b5050505050905090565b60176020528060005260406000206000915090505481565b611c3e6126cd565b73ffffffffffffffffffffffffffffffffffffffff168273ffffffffffffffffffffffffffffffffffffffff161415611cac576040517f08c379a0000000000000000000000000000000000000000000000000000000008152600401611ca3906155bd565b60405180910390fd5b8060056000611cb96126cd565b73ffffffffffffffffffffffffffffffffffffffff1673ffffffffffffffffffffffffffffffffffffffff16815260200190815260200160002060008473ffffffffffffffffffffffffffffffffffffffff1673ffffffffffffffffffffffffffffffffffffffff16815260200190815260200160002060006101000a81548160ff0219169083151502179055508173ffffffffffffffffffffffffffffffffffffffff16611d666126cd565b73ffffffffffffffffffffffffffffffffffffffff167f17307eab39ab6107e8899845ad3d59bd9653f200f220920489ca2b5937696c3183604051611dab91906153b2565b60405180910390a35050565b611dc8611dc26126cd565b8361278e565b611e07576040517f08c379a0000000000000000000000000000000000000000000000000000000008152600401611dfe9061589d565b60405180910390fd5b611e13848484846131a4565b50505050565b60196020528060005260406000206000915054906101000a900460ff1681565b60186020528160005260406000208181548110611e5557600080fd5b90600052602060002001600091509150505481565b6060611e7582612661565b611eb4576040517f08c379a0000000000000000000000000000000000000000000000000000000008152600401611eab9061573d565b60405180910390fd5b600f60009054906101000a900460ff1615611f5b5760128054611ed690615c15565b80601f0160208091040260200160405190810160405280929190818152602001828054611f0290615c15565b8015611f4f5780601f10611f2457610100808354040283529160200191611f4f565b820191906000526020600020905b815481529060010190602001808311611f3257829003601f168201915b5050505050905061205e565b6000600660008481526020019081526020016000208054611f7b90615c15565b80601f0160208091040260200160405190810160405280929190818152602001828054611fa790615c15565b8015611ff45780601f10611fc957610100808354040283529160200191611ff4565b820191906000526020600020905b815481529060010190602001808311611fd757829003601f168201915b505050505090506000612005613200565b905060008151141561201b57819250505061205e565b60008251111561205057808260405160200161203892919061525a565b6040516020818303038152906040529250505061205e565b61205984613292565b925050505b919050565b600e818154811061207357600080fd5b906000526020600020016000915090505481565b6060601860008373ffffffffffffffffffffffffffffffffffffffff1673ffffffffffffffffffffffffffffffffffffffff16815260200190815260200160002080548060200260200160405190810160405280929190818152602001828054801561211257602002820191906000526020600020905b8154815260200190600101908083116120fe575b50505050509050919050565b6121266126cd565b73ffffffffffffffffffffffffffffffffffffffff16612144611ac6565b73ffffffffffffffffffffffffffffffffffffffff161461219a576040517f08c379a00000000000000000000000000000000000000000000000000000000081526004016121919061577d565b60405180910390fd5b600f60009054906101000a900460ff16156121ea576040517f08c379a00000000000000000000000000000000000000000000000000000000081526004016121e19061567d565b60405180910390fd5b6001600f60006101000a81548160ff021916908315150217905550565b61220f6126cd565b73ffffffffffffffffffffffffffffffffffffffff1661222d611ac6565b73ffffffffffffffffffffffffffffffffffffffff1614612283576040517f08c379a000000000000000000000000000000000000000000000000000000000815260040161227a9061577d565b60405180910390fd5b601a60008273ffffffffffffffffffffffffffffffffffffffff1673ffffffffffffffffffffffffffffffffffffffff16815260200190815260200160002060009054906101000a900460ff1661230f576040517f08c379a00000000000000000000000000000000000000000000000000000000081526004016123069061579d565b60405180910390fd5b6000601a60008373ffffffffffffffffffffffffffffffffffffffff1673ffffffffffffffffffffffffffffffffffffffff16815260200190815260200160002060006101000a81548160ff02191690831515021790555050565b601a6020528060005260406000206000915054906101000a900460ff1681565b6000600560008473ffffffffffffffffffffffffffffffffffffffff1673ffffffffffffffffffffffffffffffffffffffff16815260200190815260200160002060008373ffffffffffffffffffffffffffffffffffffffff1673ffffffffffffffffffffffffffffffffffffffff16815260200190815260200160002060009054906101000a900460ff16905092915050565b6124266126cd565b73ffffffffffffffffffffffffffffffffffffffff16612444611ac6565b73ffffffffffffffffffffffffffffffffffffffff161461249a576040517f08c379a00000000000000000000000000000000000000000000000000000000081526004016124919061577d565b60405180910390fd5b600d548114156124df576040517f08c379a00000000000000000000000000000000000000000000000000000000081526004016124d69061547d565b60405180910390fd5b80600d8190555050565b6124f16126cd565b73ffffffffffffffffffffffffffffffffffffffff1661250f611ac6565b73ffffffffffffffffffffffffffffffffffffffff1614612565576040517f08c379a000000000000000000000000000000000000000000000000000000000815260040161255c9061577d565b60405180910390fd5b600073ffffffffffffffffffffffffffffffffffffffff168173ffffffffffffffffffffffffffffffffffffffff1614156125d5576040517f08c379a00000000000000000000000000000000000000000000000000000000081526004016125cc906154dd565b60405180910390fd5b6125de81612c6c565b50565b600b5481565b60007f2a55205a000000000000000000000000000000000000000000000000000000007bffffffffffffffffffffffffffffffffffffffffffffffffffffffff1916827bffffffffffffffffffffffffffffffffffffffffffffffffffffffff1916148061265a5750612659826133e4565b5b9050919050565b60008073ffffffffffffffffffffffffffffffffffffffff166002600084815260200190815260200160002060009054906101000a900473ffffffffffffffffffffffffffffffffffffffff1673ffffffffffffffffffffffffffffffffffffffff1614159050919050565b600033905090565b816004600083815260200190815260200160002060006101000a81548173ffffffffffffffffffffffffffffffffffffffff021916908373ffffffffffffffffffffffffffffffffffffffff160217905550808273ffffffffffffffffffffffffffffffffffffffff1661274883611685565b73ffffffffffffffffffffffffffffffffffffffff167f8c5be1e5ebec7d5bd14f71427d1e84f3dd0314c0f7b2291e5b200ac8c7c3b92560405160405180910390a45050565b600061279982612661565b6127d8576040517f08c379a00000000000000000000000000000000000000000000000000000000081526004016127cf9061561d565b60405180910390fd5b60006127e383611685565b90508073ffffffffffffffffffffffffffffffffffffffff168473ffffffffffffffffffffffffffffffffffffffff16148061285257508373ffffffffffffffffffffffffffffffffffffffff1661283a84610a78565b73ffffffffffffffffffffffffffffffffffffffff16145b806128635750612862818561238a565b5b91505092915050565b8273ffffffffffffffffffffffffffffffffffffffff1661288c82611685565b73ffffffffffffffffffffffffffffffffffffffff16146128e2576040517f08c379a00000000000000000000000000000000000000000000000000000000081526004016128d9906157bd565b60405180910390fd5b600073ffffffffffffffffffffffffffffffffffffffff168273ffffffffffffffffffffffffffffffffffffffff161415612952576040517f08c379a00000000000000000000000000000000000000000000000000000000081526004016129499061559d565b60405180910390fd5b61295d8383836134c6565b6129686000826126d5565b6001600360008573ffffffffffffffffffffffffffffffffffffffff1673ffffffffffffffffffffffffffffffffffffffff16815260200190815260200160002060008282546129b89190615b21565b925050819055506001600360008473ffffffffffffffffffffffffffffffffffffffff1673ffffffffffffffffffffffffffffffffffffffff1681526020019081526020016000206000828254612a0f9190615a40565b92505081905550816002600083815260200190815260200160002060006101000a81548173ffffffffffffffffffffffffffffffffffffffff021916908373ffffffffffffffffffffffffffffffffffffffff160217905550808273ffffffffffffffffffffffffffffffffffffffff168473ffffffffffffffffffffffffffffffffffffffff167fddf252ad1be2c89b69c2b068fc378daa952ba7f163c4a11628f55a4df523b3ef60405160405180910390a4505050565b612ad061166e565b612b0f576040517f08c379a0000000000000000000000000000000000000000000000000000000008152600401612b069061545d565b60405180910390fd5b6000600860006101000a81548160ff0219169083151502179055507f5db9ee0a495bf2e6ff9c91a7834c1ba4fdd244a5e8aa4e537bd38aeae4b073aa612b536126cd565b604051612b6091906152c2565b60405180910390a1565b60006014547f000000000000000000000000000000000000000000000000000000000000000073ffffffffffffffffffffffffffffffffffffffff166370a08231306040518263ffffffff1660e01b8152600401612bc891906152c2565b60206040518083038186803b158015612be057600080fd5b505afa158015612bf4573d6000803e3d6000fd5b505050506040513d601f19601f82011682018060405250810190612c189190614397565b1015612c59576040517f08c379a0000000000000000000000000000000000000000000000000000000008152600401612c50906155dd565b60405180910390fd5b612c676013546014546134cb565b905090565b6000600860019054906101000a900473ffffffffffffffffffffffffffffffffffffffff16905081600860016101000a81548173ffffffffffffffffffffffffffffffffffffffff021916908373ffffffffffffffffffffffffffffffffffffffff1602179055508173ffffffffffffffffffffffffffffffffffffffff168173ffffffffffffffffffffffffffffffffffffffff167f8be0079c531659141344cd1fd0a4f28419497f9722a3daafe3b4186f6b6457e060405160405180910390a35050565b612d3a61166e565b15612d7a576040517f08c379a0000000000000000000000000000000000000000000000000000000008152600401612d719061565d565b60405180910390fd5b6001600860006101000a81548160ff0219169083151502179055507f62e78cea01bee320cd4e420270b5ea74000d11b0c9f74754ebdbfc544b05a258612dbe6126cd565b604051612dcb91906152c2565b60405180910390a1565b612710811115612e1a576040517f08c379a0000000000000000000000000000000000000000000000000000000008152600401612e119061549d565b60405180910390fd5b60405180604001604052808373ffffffffffffffffffffffffffffffffffffffff1681526020018262ffffff16815250600a60008201518160000160006101000a81548173ffffffffffffffffffffffffffffffffffffffff021916908373ffffffffffffffffffffffffffffffffffffffff16021790555060208201518160000160146101000a81548162ffffff021916908362ffffff1602179055509050505050565b6000600b5482612ecf9190615ca4565b9050600b548110612f09577f4e487b7100000000000000000000000000000000000000000000000000000000600052600160045260246000fd5b612f128161362d565b601081905550612f23601054612661565b15612f57577f4e487b7100000000000000000000000000000000000000000000000000000000600052600160045260246000fd5b60006015600085815260200190815260200160002060009054906101000a900473ffffffffffffffffffffffffffffffffffffffff169050601054601760008373ffffffffffffffffffffffffffffffffffffffff1673ffffffffffffffffffffffffffffffffffffffff16815260200190815260200160002081905550601860008273ffffffffffffffffffffffffffffffffffffffff1673ffffffffffffffffffffffffffffffffffffffff16815260200190815260200160002060105490806001815401808255809150506001900390600052602060002001600090919091909150556130498160105461366d565b61309260105461306261305d60105461368b565b613838565b61306d60105461368b565b60405160200161307e92919061527e565b604051602081830303815290604052613924565b61309b82613998565b600e6010549080600181540180825580915050600190039060005260206000200160009091909190915055601860008273ffffffffffffffffffffffffffffffffffffffff1673ffffffffffffffffffffffffffffffffffffffff1681526020019081526020016000208054905061311282611737565b14613146577f4e487b7100000000000000000000000000000000000000000000000000000000600052600160045260246000fd5b6000601960008373ffffffffffffffffffffffffffffffffffffffff1673ffffffffffffffffffffffffffffffffffffffff16815260200190815260200160002060006101000a81548160ff02191690831515021790555050505050565b6131af84848461286c565b6131bb84848484613a0a565b6131fa576040517f08c379a00000000000000000000000000000000000000000000000000000000081526004016131f1906154bd565b60405180910390fd5b50505050565b60606011805461320f90615c15565b80601f016020809104026020016040519081016040528092919081815260200182805461323b90615c15565b80156132885780601f1061325d57610100808354040283529160200191613288565b820191906000526020600020905b81548152906001019060200180831161326b57829003601f168201915b5050505050905090565b606061329d82612661565b6132dc576040517f08c379a00000000000000000000000000000000000000000000000000000000081526004016132d39061573d565b60405180910390fd5b60006006600084815260200190815260200160002080546132fc90615c15565b80601f016020809104026020016040519081016040528092919081815260200182805461332890615c15565b80156133755780601f1061334a57610100808354040283529160200191613375565b820191906000526020600020905b81548152906001019060200180831161335857829003601f168201915b505050505090506000613386613200565b905060008151141561339c5781925050506133df565b6000825111156133d15780826040516020016133b992919061525a565b604051602081830303815290604052925050506133df565b6133da84613ba1565b925050505b919050565b60007f80ac58cd000000000000000000000000000000000000000000000000000000007bffffffffffffffffffffffffffffffffffffffffffffffffffffffff1916827bffffffffffffffffffffffffffffffffffffffffffffffffffffffff191614806134af57507f5b5e139f000000000000000000000000000000000000000000000000000000007bffffffffffffffffffffffffffffffffffffffffffffffffffffffff1916827bffffffffffffffffffffffffffffffffffffffffffffffffffffffff1916145b806134bf57506134be82613c48565b5b9050919050565b505050565b60007f000000000000000000000000000000000000000000000000000000000000000073ffffffffffffffffffffffffffffffffffffffff16634000aea07f00000000000000000000000000000000000000000000000000000000000000008486600060405160200161353f9291906153cd565b6040516020818303038152906040526040518463ffffffff1660e01b815260040161356c93929190615352565b602060405180830381600087803b15801561358657600080fd5b505af115801561359a573d6000803e3d6000fd5b505050506040513d601f19601f820116820180604052508101906135be91906142b7565b5060006135e1846000306007600089815260200190815260200160002054613cb2565b9050600160076000868152602001908152602001600020546136039190615a40565b60076000868152602001908152602001600020819055506136248482613cee565b91505092915050565b6000806016600084815260200190815260200160002054146136645760166000838152602001908152602001600020549050613668565b8190505b919050565b613687828260405180602001604052806000815250613d21565b5050565b606060008214156136d3576040518060400160405280600181526020017f30000000000000000000000000000000000000000000000000000000000000008152509050613833565b600082905060005b600082146137055780806136ee90615c47565b915050600a826136fe9190615a96565b91506136db565b60008167ffffffffffffffff811115613747577f4e487b7100000000000000000000000000000000000000000000000000000000600052604160045260246000fd5b6040519080825280601f01601f1916602001820160405280156137795781602001600182028036833780820191505090505b5090505b6000851461382c576001826137929190615b21565b9150600a856137a19190615ca4565b60306137ad9190615a40565b60f81b8183815181106137e9577f4e487b7100000000000000000000000000000000000000000000000000000000600052603260045260246000fd5b60200101907effffffffffffffffffffffffffffffffffffffffffffffffffffffffffffff1916908160001a905350600a856138259190615a96565b945061377d565b8093505050505b919050565b6060600482511061387e576040517f08c379a00000000000000000000000000000000000000000000000000000000081526004016138759061563d565b60405180910390fd5b6001825114156138c5576040518060400160405280600281526020017f3030000000000000000000000000000000000000000000000000000000000000815250905061391f565b60028251141561390c576040518060400160405280600181526020017f3000000000000000000000000000000000000000000000000000000000000000815250905061391f565b6040518060200160405280600081525090505b919050565b61392d82612661565b61396c576040517f08c379a0000000000000000000000000000000000000000000000000000000008152600401613963906156fd565b60405180910390fd5b80600660008481526020019081526020016000209080519060200190613993929190613f5d565b505050565b6139af6001600b546139aa9190615b21565b61362d565b60166000838152602001908152602001600020819055506000601660006001600b546139db9190615b21565b8152602001908152602001600020819055506001600b6000828254613a009190615b21565b9250508190555050565b6000613a2b8473ffffffffffffffffffffffffffffffffffffffff16613d7c565b15613b94578373ffffffffffffffffffffffffffffffffffffffff1663150b7a02613a546126cd565b8786866040518563ffffffff1660e01b8152600401613a7694939291906152dd565b602060405180830381600087803b158015613a9057600080fd5b505af1925050508015613ac157506040513d601f19601f82011682018060405250810190613abe9190614345565b60015b613b44573d8060008114613af1576040519150601f19603f3d011682016040523d82523d6000602084013e613af6565b606091505b50600081511415613b3c576040517f08c379a0000000000000000000000000000000000000000000000000000000008152600401613b33906154bd565b60405180910390fd5b805181602001fd5b63150b7a0260e01b7bffffffffffffffffffffffffffffffffffffffffffffffffffffffff1916817bffffffffffffffffffffffffffffffffffffffffffffffffffffffff191614915050613b99565b600190505b949350505050565b6060613bac82612661565b613beb576040517f08c379a0000000000000000000000000000000000000000000000000000000008152600401613be2906157dd565b60405180910390fd5b6000613bf5613200565b90506000815111613c155760405180602001604052806000815250613c40565b80613c1f8461368b565b604051602001613c3092919061525a565b6040516020818303038152906040525b915050919050565b60007f01ffc9a7000000000000000000000000000000000000000000000000000000007bffffffffffffffffffffffffffffffffffffffffffffffffffffffff1916827bffffffffffffffffffffffffffffffffffffffffffffffffffffffff1916149050919050565b600084848484604051602001613ccb94939291906153f6565b6040516020818303038152906040528051906020012060001c9050949350505050565b60008282604051602001613d0392919061522e565b60405160208183030381529060405280519060200120905092915050565b613d2b8383613d8f565b613d386000848484613a0a565b613d77576040517f08c379a0000000000000000000000000000000000000000000000000000000008152600401613d6e906154bd565b60405180910390fd5b505050565b600080823b905060008111915050919050565b600073ffffffffffffffffffffffffffffffffffffffff168273ffffffffffffffffffffffffffffffffffffffff161415613dff576040517f08c379a0000000000000000000000000000000000000000000000000000000008152600401613df69061571d565b60405180910390fd5b613e0881612661565b15613e48576040517f08c379a0000000000000000000000000000000000000000000000000000000008152600401613e3f9061553d565b60405180910390fd5b613e54600083836134c6565b6001600360008473ffffffffffffffffffffffffffffffffffffffff1673ffffffffffffffffffffffffffffffffffffffff1681526020019081526020016000206000828254613ea49190615a40565b92505081905550816002600083815260200190815260200160002060006101000a81548173ffffffffffffffffffffffffffffffffffffffff021916908373ffffffffffffffffffffffffffffffffffffffff160217905550808273ffffffffffffffffffffffffffffffffffffffff16600073ffffffffffffffffffffffffffffffffffffffff167fddf252ad1be2c89b69c2b068fc378daa952ba7f163c4a11628f55a4df523b3ef60405160405180910390a45050565b828054613f6990615c15565b90600052602060002090601f016020900481019282613f8b5760008555613fd2565b82601f10613fa457805160ff1916838001178555613fd2565b82800160010185558215613fd2579182015b82811115613fd1578251825591602001919060010190613fb6565b5b509050613fdf9190613fe3565b5090565b5b80821115613ffc576000816000905550600101613fe4565b5090565b600061401361400e84615989565b615958565b90508281526020810184848401111561402b57600080fd5b614036848285615bd3565b509392505050565b60008135905061404d81615da2565b92915050565b60008135905061406281615db9565b92915050565b60008151905061407781615db9565b92915050565b60008135905061408c81615dd0565b92915050565b6000813590506140a181615de7565b92915050565b6000815190506140b681615de7565b92915050565b600082601f8301126140cd57600080fd5b81356140dd848260208601614000565b91505092915050565b6000813590506140f581615dfe565b92915050565b60008151905061410a81615dfe565b92915050565b60006020828403121561412257600080fd5b60006141308482850161403e565b91505092915050565b6000806040838503121561414c57600080fd5b600061415a8582860161403e565b925050602061416b8582860161403e565b9150509250929050565b60008060006060848603121561418a57600080fd5b60006141988682870161403e565b93505060206141a98682870161403e565b92505060406141ba868287016140e6565b9150509250925092565b600080600080608085870312156141da57600080fd5b60006141e88782880161403e565b94505060206141f98782880161403e565b935050604061420a878288016140e6565b925050606085013567ffffffffffffffff81111561422757600080fd5b614233878288016140bc565b91505092959194509250565b6000806040838503121561425257600080fd5b60006142608582860161403e565b925050602061427185828601614053565b9150509250929050565b6000806040838503121561428e57600080fd5b600061429c8582860161403e565b92505060206142ad858286016140e6565b9150509250929050565b6000602082840312156142c957600080fd5b60006142d784828501614068565b91505092915050565b600080604083850312156142f357600080fd5b60006143018582860161407d565b9250506020614312858286016140e6565b9150509250929050565b60006020828403121561432e57600080fd5b600061433c84828501614092565b91505092915050565b60006020828403121561435757600080fd5b6000614365848285016140a7565b91505092915050565b60006020828403121561438057600080fd5b600061438e848285016140e6565b91505092915050565b6000602082840312156143a957600080fd5b60006143b7848285016140fb565b91505092915050565b600080604083850312156143d357600080fd5b60006143e1858286016140e6565b92505060206143f2858286016140e6565b9150509250929050565b600061440883836151f9565b60208301905092915050565b61441d81615b55565b82525050565b600061442e826159c9565b61443881856159f7565b9350614443836159b9565b8060005b8381101561447457815161445b88826143fc565b9750614466836159ea565b925050600181019050614447565b5085935050505092915050565b61448a81615b67565b82525050565b61449981615b73565b82525050565b6144b06144ab82615b73565b615c90565b82525050565b60006144c1826159d4565b6144cb8185615a08565b93506144db818560208601615be2565b6144e481615d91565b840191505092915050565b60006144fa826159df565b6145048185615a24565b9350614514818560208601615be2565b61451d81615d91565b840191505092915050565b6000614533826159df565b61453d8185615a35565b935061454d818560208601615be2565b80840191505092915050565b6000614566601483615a24565b91507f5061757361626c653a206e6f74207061757365640000000000000000000000006000830152602082019050919050565b60006145a6601d83615a24565b91507f547279696e6720746f207365742073616d65206665652076616c75652e0000006000830152602082019050919050565b60006145e6601a83615a24565b91507f45524332393831526f79616c746965733a20546f6f20686967680000000000006000830152602082019050919050565b6000614626603283615a24565b91507f4552433732313a207472616e7366657220746f206e6f6e20455243373231526560008301527f63656976657220696d706c656d656e74657200000000000000000000000000006020830152604082019050919050565b600061468c602683615a24565b91507f4f776e61626c653a206e6577206f776e657220697320746865207a65726f206160008301527f64647265737300000000000000000000000000000000000000000000000000006020830152604082019050919050565b60006146f2602183615a24565b91507f4d696e74696e6720696e2070726f67726573732e20506c65617365207761697460008301527f2e000000000000000000000000000000000000000000000000000000000000006020830152604082019050919050565b6000614758601583615a24565b91507f4661696c656420746f2073656e6420636f696e732e00000000000000000000006000830152602082019050919050565b6000614798601c83615a24565b91507f4552433732313a20746f6b656e20616c7265616479206d696e746564000000006000830152602082019050919050565b60006147d8600d83615a24565b91507f4d696e696d756d206f6620312e000000000000000000000000000000000000006000830152602082019050919050565b6000614818601283615a24565b91507f496e73756666696369656e742046756e647300000000000000000000000000006000830152602082019050919050565b6000614858602483615a24565b91507f4552433732313a207472616e7366657220746f20746865207a65726f2061646460008301527f72657373000000000000000000000000000000000000000000000000000000006020830152604082019050919050565b60006148be601983615a24565b91507f4552433732313a20617070726f766520746f2063616c6c6572000000000000006000830152602082019050919050565b60006148fe602b83615a24565b91507f4e6f7420656e6f756768204c494e4b202d2066696c6c20636f6e74726163742060008301527f77697468206661756365740000000000000000000000000000000000000000006020830152604082019050919050565b6000614964601d83615a24565b91507f547279696e6720746f207365742073616d65206d61782076616c75652e0000006000830152602082019050919050565b60006149a4602c83615a24565b91507f4552433732313a206f70657261746f7220717565727920666f72206e6f6e657860008301527f697374656e7420746f6b656e00000000000000000000000000000000000000006020830152604082019050919050565b6000614a0a600f83615a24565b91507f31323820746f6b656e73206d61782e00000000000000000000000000000000006000830152602082019050919050565b6000614a4a601083615a24565b91507f5061757361626c653a20706175736564000000000000000000000000000000006000830152602082019050919050565b6000614a8a601383615a24565b91507f55524920616c72656164792068696464656e2e000000000000000000000000006000830152602082019050919050565b6000614aca603883615a24565b91507f4552433732313a20617070726f76652063616c6c6572206973206e6f74206f7760008301527f6e6572206e6f7220617070726f76656420666f7220616c6c00000000000000006020830152604082019050919050565b6000614b30602a83615a24565b91507f4552433732313a2062616c616e636520717565727920666f7220746865207a6560008301527f726f2061646472657373000000000000000000000000000000000000000000006020830152604082019050919050565b6000614b96602983615a24565b91507f4552433732313a206f776e657220717565727920666f72206e6f6e657869737460008301527f656e7420746f6b656e00000000000000000000000000000000000000000000006020830152604082019050919050565b6000614bfc602e83615a24565b91507f45524337323155524953746f726167653a2055524920736574206f66206e6f6e60008301527f6578697374656e7420746f6b656e0000000000000000000000000000000000006020830152604082019050919050565b6000614c62602083615a24565b91507f4552433732313a206d696e7420746f20746865207a65726f20616464726573736000830152602082019050919050565b6000614ca2603183615a24565b91507f45524337323155524953746f726167653a2055524920717565727920666f722060008301527f6e6f6e6578697374656e7420746f6b656e0000000000000000000000000000006020830152604082019050919050565b6000614d08602c83615a24565b91507f4552433732313a20617070726f76656420717565727920666f72206e6f6e657860008301527f697374656e7420746f6b656e00000000000000000000000000000000000000006020830152604082019050919050565b6000614d6e600583615a35565b91507f2e6a736f6e0000000000000000000000000000000000000000000000000000006000830152600582019050919050565b6000614dae602083615a24565b91507f4f776e61626c653a2063616c6c6572206973206e6f7420746865206f776e65726000830152602082019050919050565b6000614dee601183615a24565b91507f4e6f7420696e2077686974656c6973742e0000000000000000000000000000006000830152602082019050919050565b6000614e2e602983615a24565b91507f4552433732313a207472616e73666572206f6620746f6b656e2074686174206960008301527f73206e6f74206f776e00000000000000000000000000000000000000000000006020830152604082019050919050565b6000614e94602f83615a24565b91507f4552433732314d657461646174613a2055524920717565727920666f72206e6f60008301527f6e6578697374656e7420746f6b656e00000000000000000000000000000000006020830152604082019050919050565b6000614efa601f83615a24565b91507f4f6e6c7920565246436f6f7264696e61746f722063616e2066756c66696c6c006000830152602082019050919050565b6000614f3a601583615a24565b91507f55524920616c72656164792072657665616c65642e00000000000000000000006000830152602082019050919050565b6000614f7a601e83615a24565b91507f30203c3d205f70657263656e74616765526f79616c7479203c3d2031303000006000830152602082019050919050565b6000614fba601183615a24565b91507f546f6b656e20706f6f6c20656d707479210000000000000000000000000000006000830152602082019050919050565b6000614ffa602183615a24565b91507f4552433732313a20617070726f76616c20746f2063757272656e74206f776e6560008301527f72000000000000000000000000000000000000000000000000000000000000006020830152604082019050919050565b6000615060600083615a19565b9150600082019050919050565b600061507a603183615a24565b91507f4552433732313a207472616e736665722063616c6c6572206973206e6f74206f60008301527f776e6572206e6f7220617070726f7665640000000000000000000000000000006020830152604082019050919050565b60006150e0601f83615a24565b91507f5265656e7472616e637947756172643a207265656e7472616e742063616c6c006000830152602082019050919050565b6000615120601583615a24565b91507f416c726561647920696e2077686974656c6973742e00000000000000000000006000830152602082019050919050565b6000615160603483615a24565b91507f52656163686564206d6178696d756d20616d6f756e74206f6620746f6b656e2060008301527f616c6c6f7765642070657220616464726573732e0000000000000000000000006020830152604082019050919050565b60006151c6601a83615a24565b91507f4f776e6572206973206265796f6e642077686974656c6973742e0000000000006000830152602082019050919050565b61520281615bc9565b82525050565b61521181615bc9565b82525050565b61522861522382615bc9565b615c9a565b82525050565b600061523a828561449f565b60208201915061524a8284615217565b6020820191508190509392505050565b60006152668285614528565b91506152728284614528565b91508190509392505050565b600061528a8285614528565b91506152968284614528565b91506152a182614d61565b91508190509392505050565b60006152b882615053565b9150819050919050565b60006020820190506152d76000830184614414565b92915050565b60006080820190506152f26000830187614414565b6152ff6020830186614414565b61530c6040830185615208565b818103606083015261531e81846144b6565b905095945050505050565b600060408201905061533e6000830185614414565b61534b6020830184615208565b9392505050565b60006060820190506153676000830186614414565b6153746020830185615208565b818103604083015261538681846144b6565b9050949350505050565b600060208201905081810360008301526153aa8184614423565b905092915050565b60006020820190506153c76000830184614481565b92915050565b60006040820190506153e26000830185614490565b6153ef6020830184615208565b9392505050565b600060808201905061540b6000830187614490565b6154186020830186615208565b6154256040830185614414565b6154326060830184615208565b95945050505050565b6000602082019050818103600083015261545581846144ef565b905092915050565b6000602082019050818103600083015261547681614559565b9050919050565b6000602082019050818103600083015261549681614599565b9050919050565b600060208201905081810360008301526154b6816145d9565b9050919050565b600060208201905081810360008301526154d681614619565b9050919050565b600060208201905081810360008301526154f68161467f565b9050919050565b60006020820190508181036000830152615516816146e5565b9050919050565b600060208201905081810360008301526155368161474b565b9050919050565b600060208201905081810360008301526155568161478b565b9050919050565b60006020820190508181036000830152615576816147cb565b9050919050565b600060208201905081810360008301526155968161480b565b9050919050565b600060208201905081810360008301526155b68161484b565b9050919050565b600060208201905081810360008301526155d6816148b1565b9050919050565b600060208201905081810360008301526155f6816148f1565b9050919050565b6000602082019050818103600083015261561681614957565b9050919050565b6000602082019050818103600083015261563681614997565b9050919050565b60006020820190508181036000830152615656816149fd565b9050919050565b6000602082019050818103600083015261567681614a3d565b9050919050565b6000602082019050818103600083015261569681614a7d565b9050919050565b600060208201905081810360008301526156b681614abd565b9050919050565b600060208201905081810360008301526156d681614b23565b9050919050565b600060208201905081810360008301526156f681614b89565b9050919050565b6000602082019050818103600083015261571681614bef565b9050919050565b6000602082019050818103600083015261573681614c55565b9050919050565b6000602082019050818103600083015261575681614c95565b9050919050565b6000602082019050818103600083015261577681614cfb565b9050919050565b6000602082019050818103600083015261579681614da1565b9050919050565b600060208201905081810360008301526157b681614de1565b9050919050565b600060208201905081810360008301526157d681614e21565b9050919050565b600060208201905081810360008301526157f681614e87565b9050919050565b6000602082019050818103600083015261581681614eed565b9050919050565b6000602082019050818103600083015261583681614f2d565b9050919050565b6000602082019050818103600083015261585681614f6d565b9050919050565b6000602082019050818103600083015261587681614fad565b9050919050565b6000602082019050818103600083015261589681614fed565b9050919050565b600060208201905081810360008301526158b68161506d565b9050919050565b600060208201905081810360008301526158d6816150d3565b9050919050565b600060208201905081810360008301526158f681615113565b9050919050565b6000602082019050818103600083015261591681615153565b9050919050565b60006020820190508181036000830152615936816151b9565b9050919050565b60006020820190506159526000830184615208565b92915050565b6000604051905081810181811067ffffffffffffffff8211171561597f5761597e615d62565b5b8060405250919050565b600067ffffffffffffffff8211156159a4576159a3615d62565b5b601f19601f8301169050602081019050919050565b6000819050602082019050919050565b600081519050919050565b600081519050919050565b600081519050919050565b6000602082019050919050565b600082825260208201905092915050565b600082825260208201905092915050565b600081905092915050565b600082825260208201905092915050565b600081905092915050565b6000615a4b82615bc9565b9150615a5683615bc9565b9250827fffffffffffffffffffffffffffffffffffffffffffffffffffffffffffffffff03821115615a8b57615a8a615cd5565b5b828201905092915050565b6000615aa182615bc9565b9150615aac83615bc9565b925082615abc57615abb615d04565b5b828204905092915050565b6000615ad282615bc9565b9150615add83615bc9565b9250817fffffffffffffffffffffffffffffffffffffffffffffffffffffffffffffffff0483118215151615615b1657615b15615cd5565b5b828202905092915050565b6000615b2c82615bc9565b9150615b3783615bc9565b925082821015615b4a57615b49615cd5565b5b828203905092915050565b6000615b6082615ba9565b9050919050565b60008115159050919050565b6000819050919050565b60007fffffffff0000000000000000000000000000000000000000000000000000000082169050919050565b600073ffffffffffffffffffffffffffffffffffffffff82169050919050565b6000819050919050565b82818337600083830152505050565b60005b83811015615c00578082015181840152602081019050615be5565b83811115615c0f576000848401525b50505050565b60006002820490506001821680615c2d57607f821691505b60208210811415615c4157615c40615d33565b5b50919050565b6000615c5282615bc9565b91507fffffffffffffffffffffffffffffffffffffffffffffffffffffffffffffffff821415615c8557615c84615cd5565b5b600182019050919050565b6000819050919050565b6000819050919050565b6000615caf82615bc9565b9150615cba83615bc9565b925082615cca57615cc9615d04565b5b828206905092915050565b7f4e487b7100000000000000000000000000000000000000000000000000000000600052601160045260246000fd5b7f4e487b7100000000000000000000000000000000000000000000000000000000600052601260045260246000fd5b7f4e487b7100000000000000000000000000000000000000000000000000000000600052602260045260246000fd5b7f4e487b7100000000000000000000000000000000000000000000000000000000600052604160045260246000fd5b6000601f19601f8301169050919050565b615dab81615b55565b8114615db657600080fd5b50565b615dc281615b67565b8114615dcd57600080fd5b50565b615dd981615b73565b8114615de457600080fd5b50565b615df081615b7d565b8114615dfb57600080fd5b50565b615e0781615bc9565b8114615e1257600080fd5b5056fea26469706673582212203a4cc929ee8c3d400524c7ecb6b7ea38ea15c454ee00cea9b5d553efdbc9446964736f6c63430008000033",
  "devdoc": {
    "kind": "dev",
    "methods": {
      "approve(address,uint256)": {
        "details": "See {IERC721-approve}."
      },
      "balanceOf(address)": {
        "details": "See {IERC721-balanceOf}."
      },
      "getApproved(uint256)": {
        "details": "See {IERC721-getApproved}."
      },
      "isApprovedForAll(address,address)": {
        "details": "See {IERC721-isApprovedForAll}."
      },
      "name()": {
        "details": "See {IERC721Metadata-name}."
      },
      "owner()": {
        "details": "Returns the address of the current owner."
      },
      "ownerOf(uint256)": {
        "details": "See {IERC721-ownerOf}."
      },
      "paused()": {
        "details": "Returns true if the contract is paused, and false otherwise."
      },
      "renounceOwnership()": {
        "details": "Leaves the contract without owner. It will not be possible to call `onlyOwner` functions anymore. Can only be called by the current owner. NOTE: Renouncing ownership will leave the contract without an owner, thereby removing any functionality that is only available to the owner."
      },
      "royaltyInfo(uint256,uint256)": {
        "params": {
          "_tokenId": "- the NFT asset queried for royalty information",
          "_value": "- the sale price of the NFT asset specified by _tokenId"
        },
        "returns": {
          "receiver": "- address of who should be sent the royalty payment",
          "royaltyAmount": "- the royalty payment amount for value sale price"
        }
      },
      "safeTransferFrom(address,address,uint256)": {
        "details": "See {IERC721-safeTransferFrom}."
      },
      "safeTransferFrom(address,address,uint256,bytes)": {
        "details": "See {IERC721-safeTransferFrom}."
      },
      "setApprovalForAll(address,bool)": {
        "details": "See {IERC721-setApprovalForAll}."
      },
      "symbol()": {
        "details": "See {IERC721Metadata-symbol}."
      },
      "tokenURI(uint256)": {
        "details": "See {IERC721Metadata-tokenURI}."
      },
      "transferFrom(address,address,uint256)": {
        "details": "See {IERC721-transferFrom}."
      },
      "transferOwnership(address)": {
        "details": "Transfers ownership of the contract to a new account (`newOwner`). Can only be called by the current owner."
      }
    },
    "version": 1
  },
  "userdoc": {
    "kind": "user",
    "methods": {},
    "version": 1
  },
  "storageLayout": {
    "storage": [
      {
        "astId": 527,
        "contract": "contracts/CuriousKid.sol:CuriousKid",
        "label": "_name",
        "offset": 0,
        "slot": "0",
        "type": "t_string_storage"
      },
      {
        "astId": 529,
        "contract": "contracts/CuriousKid.sol:CuriousKid",
        "label": "_symbol",
        "offset": 0,
        "slot": "1",
        "type": "t_string_storage"
      },
      {
        "astId": 533,
        "contract": "contracts/CuriousKid.sol:CuriousKid",
        "label": "_owners",
        "offset": 0,
        "slot": "2",
        "type": "t_mapping(t_uint256,t_address)"
      },
      {
        "astId": 537,
        "contract": "contracts/CuriousKid.sol:CuriousKid",
        "label": "_balances",
        "offset": 0,
        "slot": "3",
        "type": "t_mapping(t_address,t_uint256)"
      },
      {
        "astId": 541,
        "contract": "contracts/CuriousKid.sol:CuriousKid",
        "label": "_tokenApprovals",
        "offset": 0,
        "slot": "4",
        "type": "t_mapping(t_uint256,t_address)"
      },
      {
        "astId": 547,
        "contract": "contracts/CuriousKid.sol:CuriousKid",
        "label": "_operatorApprovals",
        "offset": 0,
        "slot": "5",
        "type": "t_mapping(t_address,t_mapping(t_address,t_bool))"
      },
      {
        "astId": 2966,
        "contract": "contracts/CuriousKid.sol:CuriousKid",
        "label": "_tokenURIs",
        "offset": 0,
        "slot": "6",
        "type": "t_mapping(t_uint256,t_string_storage)"
      },
      {
        "astId": 79,
        "contract": "contracts/CuriousKid.sol:CuriousKid",
        "label": "nonces",
        "offset": 0,
        "slot": "7",
        "type": "t_mapping(t_bytes32,t_uint256)"
      },
      {
        "astId": 387,
        "contract": "contracts/CuriousKid.sol:CuriousKid",
        "label": "_paused",
        "offset": 0,
        "slot": "8",
        "type": "t_bool"
      },
      {
        "astId": 273,
        "contract": "contracts/CuriousKid.sol:CuriousKid",
        "label": "_owner",
        "offset": 1,
        "slot": "8",
        "type": "t_address"
      },
      {
        "astId": 472,
        "contract": "contracts/CuriousKid.sol:CuriousKid",
        "label": "_status",
        "offset": 0,
        "slot": "9",
        "type": "t_uint256"
      },
      {
        "astId": 2876,
        "contract": "contracts/CuriousKid.sol:CuriousKid",
        "label": "_royalties",
        "offset": 0,
        "slot": "10",
        "type": "t_struct(RoyaltyInfo)2843_storage"
      },
      {
        "astId": 2061,
        "contract": "contracts/CuriousKid.sol:CuriousKid",
        "label": "totalTokensRemaining",
        "offset": 0,
        "slot": "11",
        "type": "t_uint256"
      },
      {
        "astId": 2063,
        "contract": "contracts/CuriousKid.sol:CuriousKid",
        "label": "maxTokensAllowedPerAddress",
        "offset": 0,
        "slot": "12",
        "type": "t_uint256"
      },
      {
        "astId": 2065,
        "contract": "contracts/CuriousKid.sol:CuriousKid",
        "label": "feeWei",
        "offset": 0,
        "slot": "13",
        "type": "t_uint256"
      },
      {
        "astId": 2068,
        "contract": "contracts/CuriousKid.sol:CuriousKid",
        "label": "listMintedTokensIds",
        "offset": 0,
        "slot": "14",
        "type": "t_array(t_uint256)dyn_storage"
      },
      {
        "astId": 2070,
        "contract": "contracts/CuriousKid.sol:CuriousKid",
        "label": "hiddenURI",
        "offset": 0,
        "slot": "15",
        "type": "t_bool"
      },
      {
        "astId": 2072,
        "contract": "contracts/CuriousKid.sol:CuriousKid",
        "label": "newTokenId",
        "offset": 0,
        "slot": "16",
        "type": "t_uint256"
      },
      {
        "astId": 2074,
        "contract": "contracts/CuriousKid.sol:CuriousKid",
        "label": "baseURI",
        "offset": 0,
        "slot": "17",
        "type": "t_string_storage"
      },
      {
        "astId": 2076,
        "contract": "contracts/CuriousKid.sol:CuriousKid",
        "label": "temporaryURI",
        "offset": 0,
        "slot": "18",
        "type": "t_string_storage"
      },
      {
        "astId": 2078,
        "contract": "contracts/CuriousKid.sol:CuriousKid",
        "label": "keyHash",
        "offset": 0,
        "slot": "19",
        "type": "t_bytes32"
      },
      {
        "astId": 2080,
        "contract": "contracts/CuriousKid.sol:CuriousKid",
        "label": "feeLink",
        "offset": 0,
        "slot": "20",
        "type": "t_uint256"
      },
      {
        "astId": 2084,
        "contract": "contracts/CuriousKid.sol:CuriousKid",
        "label": "mapRequestIndexToAddress",
        "offset": 0,
        "slot": "21",
        "type": "t_mapping(t_bytes32,t_address)"
      },
      {
        "astId": 2088,
        "contract": "contracts/CuriousKid.sol:CuriousKid",
        "label": "mapIndexToTokenId",
        "offset": 0,
        "slot": "22",
        "type": "t_mapping(t_uint256,t_uint256)"
      },
      {
        "astId": 2092,
        "contract": "contracts/CuriousKid.sol:CuriousKid",
        "label": "mapAddressToLatestTokenId",
        "offset": 0,
        "slot": "23",
        "type": "t_mapping(t_address,t_uint256)"
      },
      {
        "astId": 2097,
        "contract": "contracts/CuriousKid.sol:CuriousKid",
        "label": "mapAddressToTokenIds",
        "offset": 0,
        "slot": "24",
        "type": "t_mapping(t_address,t_array(t_uint256)dyn_storage)"
      },
      {
        "astId": 2101,
        "contract": "contracts/CuriousKid.sol:CuriousKid",
        "label": "processingMint",
        "offset": 0,
        "slot": "25",
        "type": "t_mapping(t_address,t_bool)"
      },
      {
        "astId": 2105,
        "contract": "contracts/CuriousKid.sol:CuriousKid",
        "label": "inWhitelist",
        "offset": 0,
        "slot": "26",
        "type": "t_mapping(t_address,t_bool)"
      }
    ],
    "types": {
      "t_address": {
        "encoding": "inplace",
        "label": "address",
        "numberOfBytes": "20"
      },
      "t_array(t_uint256)dyn_storage": {
        "base": "t_uint256",
        "encoding": "dynamic_array",
        "label": "uint256[]",
        "numberOfBytes": "32"
      },
      "t_bool": {
        "encoding": "inplace",
        "label": "bool",
        "numberOfBytes": "1"
      },
      "t_bytes32": {
        "encoding": "inplace",
        "label": "bytes32",
        "numberOfBytes": "32"
      },
      "t_mapping(t_address,t_array(t_uint256)dyn_storage)": {
        "encoding": "mapping",
        "key": "t_address",
        "label": "mapping(address => uint256[])",
        "numberOfBytes": "32",
        "value": "t_array(t_uint256)dyn_storage"
      },
      "t_mapping(t_address,t_bool)": {
        "encoding": "mapping",
        "key": "t_address",
        "label": "mapping(address => bool)",
        "numberOfBytes": "32",
        "value": "t_bool"
      },
      "t_mapping(t_address,t_mapping(t_address,t_bool))": {
        "encoding": "mapping",
        "key": "t_address",
        "label": "mapping(address => mapping(address => bool))",
        "numberOfBytes": "32",
        "value": "t_mapping(t_address,t_bool)"
      },
      "t_mapping(t_address,t_uint256)": {
        "encoding": "mapping",
        "key": "t_address",
        "label": "mapping(address => uint256)",
        "numberOfBytes": "32",
        "value": "t_uint256"
      },
      "t_mapping(t_bytes32,t_address)": {
        "encoding": "mapping",
        "key": "t_bytes32",
        "label": "mapping(bytes32 => address)",
        "numberOfBytes": "32",
        "value": "t_address"
      },
      "t_mapping(t_bytes32,t_uint256)": {
        "encoding": "mapping",
        "key": "t_bytes32",
        "label": "mapping(bytes32 => uint256)",
        "numberOfBytes": "32",
        "value": "t_uint256"
      },
      "t_mapping(t_uint256,t_address)": {
        "encoding": "mapping",
        "key": "t_uint256",
        "label": "mapping(uint256 => address)",
        "numberOfBytes": "32",
        "value": "t_address"
      },
      "t_mapping(t_uint256,t_string_storage)": {
        "encoding": "mapping",
        "key": "t_uint256",
        "label": "mapping(uint256 => string)",
        "numberOfBytes": "32",
        "value": "t_string_storage"
      },
      "t_mapping(t_uint256,t_uint256)": {
        "encoding": "mapping",
        "key": "t_uint256",
        "label": "mapping(uint256 => uint256)",
        "numberOfBytes": "32",
        "value": "t_uint256"
      },
      "t_string_storage": {
        "encoding": "bytes",
        "label": "string",
        "numberOfBytes": "32"
      },
      "t_struct(RoyaltyInfo)2843_storage": {
        "encoding": "inplace",
        "label": "struct ERC2981Base.RoyaltyInfo",
        "members": [
          {
            "astId": 2840,
            "contract": "contracts/CuriousKid.sol:CuriousKid",
            "label": "recipient",
            "offset": 0,
            "slot": "0",
            "type": "t_address"
          },
          {
            "astId": 2842,
            "contract": "contracts/CuriousKid.sol:CuriousKid",
            "label": "amount",
            "offset": 20,
            "slot": "0",
            "type": "t_uint24"
          }
        ],
        "numberOfBytes": "32"
      },
      "t_uint24": {
        "encoding": "inplace",
        "label": "uint24",
        "numberOfBytes": "3"
      },
      "t_uint256": {
        "encoding": "inplace",
        "label": "uint256",
        "numberOfBytes": "32"
      }
    }
  }
}